:020000040800F2
:1000000000280020811100081111000817110008B4
:100010001D1100082311000829110008000000002C
:100020000000000000000000000000002F11000888
:100030003B110008000000004711000853110008A0
:10004000C9110008C9110008C9110008C911000828
:10005000C9110008C9110008C9110008C911000818
:10006000C9110008C9110008C9110008C911000808
:10007000C9110008C9110008C9110008C9110008F8
:10008000C9110008C9110008C9110008C9110008E8
:10009000C9110008C9110008C9110008C9110008D8
:1000A000C9110008C9110008C9110008C9110008C8
:1000B00061110008C911000800000000C911000802
:1000C000C91100080000000000000000C91100086C
:1000D00000000000C9110008C9110008000000005C
:1000E000C9110008C9110008C9110008000000006A
:1000F0000000000000000000000000000000000000
:0C01000000000000000000005FF808F1A3
:10010C0010B5054C237833B9044B13B10448AFF345
:10011C0000800123237010BD380000200000000077
:10012C003C28000808B5034B1BB103490348AFF347
:10013C00008008BD000000003C0000203C280008A6
:10014C0080B582B000AF78607B68032B36D801A2F3
:10015C0052F823F071010008870100089D01000886
:10016C00B3010008002000F031F8174A7B6852F800
:10017C002330184600F07CF821E0012000F026F82E
:10018C00114A7B6852F82330184600F071F816E0DB
:10019C00022000F01BF80C4A7B6852F823301846FA
:1001AC0000F066F80BE0032000F010F8064A7B68BC
:1001BC0052F82330184600F05BF800E000BF00BF97
:1001CC000837BD4680BD00BF54000020B0B592B0CA
:1001DC0000AF7860244B07F108041D460FCD0FC407
:1001EC000FCD0FC40FCD0FC495E80F0084E80F009E
:1001FC007B681B0107F148021344403B1B68DBB2D0
:10020C001A464FF40061194801F0DBFA7B681B01B8
:10021C0007F1480213443C3B1B68DBB21A464FF40F
:10022C008051124801F0CDFA7B681B0107F148029E
:10023C001344383B1B68DBB21A464FF400510B4891
:10024C0001F0BFFA7B681B0107F148021344343BF1
:10025C001B68DBB21A464FF48041044801F0B1FA36
:10026C0000BF4837BD46B0BD542800080008014007
:10027C0080B5C8B000AF3B1D186007F10803414AB8
:10028C00184611464FF48C731A4602F0BBFA07F16C
:10029C0008013B1D1A681346DB009B1A9B000B449C
:1002AC001B68DBB21A460121374801F08AFA07F1C4
:1002BC0008013B1D1A681346DB009B1A9B000B447C
:1002CC0004331B68DBB21A4602212F4801F079FA7D
:1002DC0007F108013B1D1A681346DB009B1A9B00B3
:1002EC000B4408331B68DBB21A460421264801F084
:1002FC0068FA07F108013B1D1A681346DB009B1ACC
:10030C009B000B440C331B68DBB21A4608211E48B9
:10031C0001F057FA07F108013B1D1A681346DB0080
:10032C009B1A9B000B4410331B68DBB21A4610213E
:10033C00154801F046FA07F108013B1D1A681346EF
:10034C00DB009B1A9B000B4414331B68DBB21A4670
:10035C0020210D4801F035FA07F108013B1D1A6800
:10036C001346DB009B1A9B000B4418331B68DBB253
:10037C001A464021044801F024FA00BF07F5907793
:10038C00BD4680BD94280008000C014080B483B0A9
:10039C0000AF78607B680D4A82FB03129210DB176A
:1003AC00D31A0B4A13607968084B83FB01239A100C
:1003BC00CB17D21A13469B0013445B00CA1A044B8A
:1003CC005A6000BF0C37BD4680BC704767666666D6
:1003DC005400002080B483B000AF78607B680D4A75
:1003EC0082FB03129210DB17D31A0B4A93607968C5
:1003FC00084B83FB01239A10CB17D21A13469B0090
:10040C0013445B00CA1A044BDA6000BF0C37BD46BC
:10041C0080BC7047676666665400002080B500AFEC
:10042C000B4B1B68012B11D10A4B1B68032B02DDF4
:10043C00084B00221A60074B1B685A1C05490A60BE
:10044C001846FFF77DFE192000F04CFD00BF80BD63
:10045C00980000206400002080B483B000AF786066
:10046C00034A7B68136000BF0C37BD4680BC7047E5
:10047C006800002080B483B000AF7860034A7B68CA
:10048C00136000BF0C37BD4680BC70476C00002069
:10049C0080B500AF144B1B68002B03D1134B1B68AA
:1004AC00002B1FD0124B1B68012B1CD10E4B1B6851
:1004BC00002B07DD0C4B1B685A1E0B490A601846B3
:1004CC00FFF764FF094B1B68002B07DD074B1B680C
:1004DC005A1E06490A601846FFF77CFF642000F09C
:1004EC0015FD00E000BF80BD680000206C000020FE
:1004FC00A000002080B400AF044B00221A60044B13
:10050C0000221A6000BFBD4680BC70476800002006
:10051C006C00002080B400AF064B1B68012B04D18B
:10052C00044B00221A60012300E000231846BD464C
:10053C0080BC70477000002080B400AF064B1B6875
:10054C00012B04D1044B00221A60012300E000238C
:10055C001846BD4680BC70477400002080B400AFC4
:10056C00064B1B68012B04D1044B00221A6001239B
:10057C0000E000231846BD4680BC70477800002080
:10058C0080B483B000AF78607B68032B11D07B689C
:10059C00032B12DC7B68012B03D07B68022B04D06D
:1005AC000BE0094B01221A6008E0084B01221A608B
:1005BC0004E0074B01221A6000E000BF00BF0C37BB
:1005CC00BD4680BC704700BF700000207400002046
:1005DC007800002080B500AF344B1B68344A1360A0
:1005EC00344B1B68314A13604FF48071324801F070
:1005FC00D1F80346002B06D12E4B00221A602F4B4C
:10060C0001221A6020E04FF400712B4801F0C2F86F
:10061C000346002B06D1274B00221A60274B0222DF
:10062C001A6011E04FF48061234801F0B3F80346DF
:10063C00002B06D11F4B00221A60204B03221A609C
:10064C0002E01C4B01221A60184B1A68194B1B68EC
:10065C009A4228D1154B1A68154B1B689A4222D125
:10066C00134B1A68164B1B689A4210D0104B1B6820
:10067C00134A1360124B1B68002B14D1114B6422CC
:10068C001A600E4B1B681846FFF77AFF0BE00D4BF8
:10069C001B68013B0B4A13600A4B1B68002B02D1F1
:1006AC00074B01221A6000BF80BD00BF0400002070
:1006BC000800002000000020000C01407C000020FD
:1006CC000C0000201000002080B500AF754B1B689B
:1006DC00012B40F0DF80744B1B68013B032B6CD863
:1006EC0001A252F823F000BF050700082D070008EF
:1006FC005D0700088D0700086B4B02221A606B4BDC
:10070C001B68642202FB03F3184600F0C3FB674B23
:10071C001B681846FFF7A0FE002000F06FF94CE0B4
:10072C00634B1B68012B43D15F4B03221A600120E2
:10073C0000F064F95F4B1B681846FFF78DFE5D4BAC
:10074C001B68642202FB03F3184600F0A3FB2FE0A6
:10075C00574B1B68012B2DD1534B04221A600220DE
:10076C0000F04CF9544B1B68642202FB03F318464F
:10077C0000F090FB504B1B681846FFF76DFE19E01C
:10078C004B4B1B68012B17D1474B02221A600020E0
:10079C0000F034F9454B1B68642202FB03F3184646
:1007AC0000F078FB414B1B681846FFF755FE03E041
:1007BC0000BF02E000BF00E000BF404B1B68013BE4
:1007CC00032B6ED801A252F823F000BFE9070008F2
:1007DC00710800081108000841080008374B032273
:1007EC001A60344B1B68642202FB03F3184600F0BA
:1007FC0065FB304B1B681846FFF73CFE012000F0F0
:10080C0043F94EE02E4B1B68012B45D12B4B042298
:10081C001A60022000F038F9274B1B681846FFF7C6
:10082C0029FE254B1B68642202FB03F3184600F0DB
:10083C0045FB31E0224B1B68012B2FD11F4B0222B1
:10084C001A60002000F020F9184B1B68642202FB90
:10085C0003F3184600F032FB144B1B681846FFF7E5
:10086C0009FE1BE0164B1B68012B19D1134B0322FD
:10087C001A60012000F008F90E4B1B68642202FB81
:10088C0003F3184600F01AFB0A4B1B681846FFF7D7
:10089C00F1FD05E000BF04E000BF02E000BF00E096
:1008AC0000BF80BD14000020180000202000002094
:1008BC008800002028000020240000201C000020BC
:1008CC009000002080B500AF1C4B1B68022B33D16D
:1008DC00FFF710FE012000F021F9194B1B68184698
:1008EC00FFF754FD154B1B681846FFF773FDFFF718
:1008FC0023FE0346012B0BD1114B1B680133104A0D
:10090C0013600F4B1B68642B02D10D4B01221A6034
:10091C00FFF724FE0346002B0FD0094B1A68094B36
:10092C001B681344084A136000F058F8074B1B6807
:10093C000133064A136000E000BF80BD14000020A4
:10094C00280000202400002020000020800000202F
:10095C0080B500AF1C4B1B68032B33D1FFF7CAFDCE
:10096C00022000F0DBF8194B1B681846FFF70EFD50
:10097C00154B1B681846FFF72DFDFFF7DDFD0346F1
:10098C00012B0BD1114B1B680133104A13600F4B19
:10099C001B68642B02D10D4B01221A60FFF7DEFDA0
:1009AC000346002B0FD00A4B1A68084B1B681344E4
:1009BC00084A136000F012F8074B1B680133064A13
:1009CC00136000E000BF80BD140000202400002054
:1009DC0028000020200000208000002080B400AF00
:1009EC00044B01221A60044B01221A6000BFBD4661
:1009FC0080BC7047180000201C000020B0B58CB0E3
:100A0C0000AF78601E4B07F10C041D460FCD0FC4D0
:100A1C000FCD0FC42B6823607A6813465B00134418
:100A2C009B0007F130021344243B1B68DBB21A46CF
:100A3C008021144800F0C5FE7A6813465B0013440D
:100A4C009B0007F130021344203B1B68DBB21A46B3
:100A5C0020210C4800F0B5FE7A6813465B00134465
:100A6C009B0007F1300213441C3B1B68DBB21A4697
:100A7C004021044800F0A5FE00BF3037BD46B0BD94
:100A8C00AC29000800080140B0B58CB000AF78600C
:100A9C00204B07F10C041D460FCD0FC40FCD0FC416
:100AAC002B6823607A6813465B0013449B0007F1A4
:100ABC0030021344243B1B68DBB21A464FF48061AE
:100ACC00154800F07EFE7A6813465B0013449B00C9
:100ADC0007F130021344203B1B68DBB21A464FF47B
:100AEC0080710D4800F06DFE7A6813465B0013446C
:100AFC009B0007F1300213441C3B1B68DBB21A4607
:100B0C004FF40071044800F05CFE00BF3037BD4666
:100B1C00B0BD00BFAC2900080008014080B582B010
:100B2C0000AF7860294B1B68002B4AD07B68012BE7
:100B3C0003D07B68022B20D03FE001228021244887
:100B4C0000F03FFE01224FF48061214800F039FE95
:100B5C00012240211E4800F034FE01224FF40071A6
:100B6C001B4800F02EFE2021194800F042FE4FF4E5
:100B7C008071174800F03DFE1FE0012280211448CF
:100B8C0000F01FFE01222021114800F01AFE012264
:100B9C004FF480610E4800F014FE01224FF4807176
:100BAC000B4800F00EFE4021094800F022FE4FF4E5
:100BBC000071074800F01DFE00BF192000F0BAF9C3
:100BCC0000E000BF0837BD4680BD00BFA800002074
:100BDC000008014080B500AF01228021104800F0D0
:100BEC00F0FD012220210E4800F0EBFD01224021F6
:100BFC000B4800F0E6FD01224FF48061084800F03C
:100C0C00E0FD01224FF48071054800F0DAFD01226D
:100C1C004FF40071024800F0D4FD00BF80BD00BF4E
:100C2C000008014080B582B000AF00F0C9FA00F0B6
:100C3C0029F800F0AFF800F061F80B4801F02AFA3F
:100C4C00FFF7C8FF00F08AF900237B6000F00AF977
:100C5C00FFF73AFDFFF736FEFFF77AFEFFF718FCB9
:100C6C00FFF7DCFBF2E700BFAC00002080B582B0E0
:100C7C0000AF786000F086F9FFF7ACFC00BF0837D6
:100C8C00BD4680BD80B590B000AF07F11803282297
:100C9C000021184601F0C4FD3B1D00221A605A6069
:100CAC009A60DA601A610223BB610123BB621023D4
:100CBC00FB6200237B6307F11803184600F0B2FDBA
:100CCC000346002B01D000F0C7F80F237B600023F4
:100CDC00BB600023FB6000233B6100237B613B1D59
:100CEC000021184601F01EF80346002B01D000F03D
:100CFC00B3F800BF4037BD4680BD000080B586B05C
:100D0C0000AF07F1080300221A605A609A60DA609B
:100D1C003B4600221A605A601D4B4FF080421A600D
:100D2C001B4B41F63F725A60194B00229A60184BCC
:100D3C000922DA60164B00221A61154B00229A61C7
:100D4C00134801F057F90346002B01D000F084F84A
:100D5C004FF48053BB6007F1080319460C4801F0AF
:100D6C00EDFA0346002B01D000F076F800233B602F
:100D7C0000237B603B461946054801F0B5FC034651
:100D8C00002B01D000F068F800BF1837BD4680BDBD
:100D9C00AC00002080B586B000AF07F1080300223C
:100DAC001A605A609A60DA60284B9B69274A43F0B4
:100DBC0004039361254B9B6903F004037B607B6800
:100DCC00224B9B69214A43F0080393611F4B9B699B
:100DDC0003F008033B603B68002247F6E0711C48B7
:100DEC0000F0EFFC00227F211A4800F0EAFC47F6E5
:100DFC00E073BB600123FB6000233B6102237B613A
:100E0C0007F108031946124800F04AFB7F23BB6028
:100E1C000123FB6000233B6102237B6107F1080384
:100E2C0019460C4800F03CFB4FF4E063BB60002318
:100E3C00FB6000233B6107F108031946054800F0ED
:100E4C002FFB00BF1837BD4680BD00BF001002400D
:100E5C0000080140000C014080B400AF72B600BF26
:100E6C00FEE7000080B500AFFFF754FB0346012BF3
:100E7C000BD1074B1B680133054A1360044B1B68ED
:100E8C00042B02D1024B01221A6000BF80BD00BFAF
:100E9C001400002080B483B000AF7860054A7B68F2
:100EAC001360054B00221A6000BF0C37BD4680BC96
:100EBC00704700BF840000208800002080B483B0FD
:100ECC0000AF7860054A7B681360054B00221A60FE
:100EDC0000BF0C37BD4680BC704700BF8C000020A3
:100EEC009000002080B483B000AF7860054A7B6826
:100EFC001360054B00221A6000BF0C37BD4680BC46
:100F0C00704700BF940000209800002080B483B08C
:100F1C0000AF7860054A7B681360054B00221A60AD
:100F2C0000BF0C37BD4680BC704700BF9C00002042
:100F3C00A000002080B483B000AF7860054A7B68C5
:100F4C001360054B00221A6000BF0C37BD4680BCF5
:100F5C00704700BFA4000020A800002080B500AF9F
:100F6C000A20FFF797FF0A20FFF7A8FF0A20FFF7D8
:100F7C00B9FF0A20FFF7CAFF0A20FFF7DBFF00BF0B
:100F8C0080BD000080B400AF294B1B68002B04DD32
:100F9C00274B1B68013B264A1360254B1B68002B13
:100FAC0002D1244B01221A60234B1B68002B04DD59
:100FBC00214B1B68013B204A13601F4B1B68002B05
:100FCC0002D11E4B01221A601D4B1B68002B04DD45
:100FDC001B4B1B68013B1A4A1360194B1B68002BF7
:100FEC0002D1184B01221A60174B1B68002B04DD31
:100FFC00154B1B68013B144A1360134B1B68002BE9
:10100C0002D1124B01221A60114B1B68002B04DD1C
:10101C000F4B1B68013B0E4A13600D4B1B68002BDA
:10102C0002D10C4B01221A6000BFBD4680BC704738
:10103C0084000020880000208C00002090000020FC
:10104C0094000020980000209C000020A0000020AC
:10105C00A4000020A800002080B485B000AF154B80
:10106C009B69144A43F001039361124B9B6903F093
:10107C000103BB60BB680F4BDB690E4A43F0805326
:10108C00D3610C4BDB6903F080537B607B680A4BAC
:10109C005B68FB60FB6823F0E063FB60FB6843F07C
:1010AC008063FB60044AFB68536000BF1437BD4685
:1010BC0080BC7047001002400000014080B584B035
:1010CC0000AF78607B681B68B3F1804F13D10C4B79
:1010DC00DB690B4A43F00103D361094BDB6903F075
:1010EC000103FB60FB68002200211C2000F0A1F929
:1010FC001C2000F0BAF900BF1037BD4680BD00BF00
:10110C000010024080B400AFFEE780B400AFFEE7F1
:10111C0080B400AFFEE780B400AFFEE780B400AF50
:10112C00FEE780B400AF00BFBD4680BC704780B402
:10113C0000AF00BFBD4680BC704780B400AF00BF9D
:10114C00BD4680BC704780B500AF00F07FF800BF93
:10115C0080BD000080B500AF024800F0E7FF00BF83
:10116C0080BD00BFAC00002080B400AF00BFBD4606
:10117C0080BC70470C480D490D4A002302E0D4583E
:10118C00C4500433C4188C42F9D30A4A0A4C0023C5
:10119C0001E013600432A242FBD3FFF7E5FF01F03C
:1011AC000DFBFFF73FFD70470000002038000020CA
:1011BC00F829000838000020F8000020FEE70000A5
:1011CC0080B500AF084B1B68074A43F0100313604F
:1011DC00032000F023F90F2000F008F8FFF73CFF84
:1011EC000023184680BD00BF0020024080B582B0AD
:1011FC0000AF7860124B1A68124B1B7819464FF4EB
:10120C007A73B3FBF1F3B2FBF3F3184600F03BF93E
:10121C000346002B01D001230EE07B680F2B0AD86C
:10122C00002279684FF0FF3000F003F9064A7B6822
:10123C001360002300E0012318460837BD4680BD2B
:10124C002C000020340000203000002080B400AFBF
:10125C00054B1B781A46054B1B681344034A136055
:10126C0000BFBD4680BC704734000020F400002055
:10127C0080B400AF024B1B681846BD4680BC70475B
:10128C00F400002080B485B000AF78607B6803F078
:10129C000703FB600C4BDB68BB60BA684FF6FF03BF
:1012AC001340BB60FB681A02BB68134343F0BF6377
:1012BC0043F40033BB60044ABB68D36000BF1437EF
:1012CC00BD4680BC704700BF00ED00E080B400AFAD
:1012DC00044BDB681B0A03F007031846BD4680BCB1
:1012EC00704700BF00ED00E080B483B000AF034650
:1012FC00FB7197F90730002B0BDBFB7903F01F0216
:10130C00064997F907305B09012000FA02F241F80F
:10131C00232000BF0C37BD4680BC704700E100E0C5
:10132C0080B483B000AF03463960FB7197F9073086
:10133C00002B0ADB3B68DAB20C4997F90730120133
:10134C00D2B20B4483F800230AE03B68DAB20849B6
:10135C00FB7903F00F03043B1201D2B20B441A7653
:10136C0000BF0C37BD4680BC704700BF00E100E0F9
:10137C0000ED00E080B489B000AFF860B9607A602D
:10138C00FB6803F00703FB61FB69C3F10703042B44
:10139C0028BF0423BB61FB690433062B02D9FB690C
:1013AC00033B00E000237B614FF0FF32BB6902FA84
:1013BC0003F3DA43BB681A407B699A404FF0FF3164
:1013CC007B6901FA03F3D9437B680B40134318463E
:1013DC002437BD4680BC704780B582B000AF7860C2
:1013EC007B68013BB3F1807F01D301230FE00A4AF4
:1013FC007B68013B53600F214FF0FF30FFF790FFEC
:10140C00054B00229A60044B07221A6000231846F1
:10141C000837BD4680BD00BF10E000E080B582B04B
:10142C0000AF78607868FFF72DFF00BF0837BD4626
:10143C0080BD80B586B000AF0346B9607A60FB739F
:10144C0000237B61FFF742FF78617A68B96878699D
:10145C00FFF790FF024697F90F3011461846FFF739
:10146C005FFF00BF1837BD4680BD80B582B000AFAE
:10147C000346FB7197F907301846FFF735FF00BF9D
:10148C000837BD4680BD80B582B000AF7860786803
:10149C00FFF7A2FF034618460837BD4680BD000083
:1014AC0080B48BB000AF7860396000237B6200237E
:1014BC003B6248E101227B6A02FA03F3FB613B6861
:1014CC001B68FA691340BB61BA69FB699A4240F028
:1014DC0037813B685B68A34A93425ED0A14A934232
:1014EC0075D8A14A934258D09F4A93426FD89F4ACD
:1014FC00934252D09D4A934269D89D4A93424CD014
:10150C009B4A934263D89B4A934246D0994A934252
:10151C005DD8122B2AD8122B59D801A252F823F0DD
:10152C00A71500088115000893150008D5150008AB
:10153C00DB150008DB150008DB150008DB150008BF
:10154C00DB150008DB150008DB150008DB150008AF
:10155C00DB150008DB150008DB150008DB1500089F
:10156C00DB150008891500089D150008824A934276
:10157C0013D02CE03B68DB683B6229E03B68DB68FE
:10158C0004333B6224E03B68DB6808333B621FE0BA
:10159C003B68DB680C333B621AE03B689B68002BB2
:1015AC0002D104233B6213E03B689B68012B05D1FD
:1015BC0008233B627B68FA691A6109E008233B62E5
:1015CC007B68FA695A6103E000233B6200E000BFCC
:1015DC00BB69FF2B01D87B6801E07B6804337B611E
:1015EC00BB69FF2B02D87B6A9B0002E07B6A083B3D
:1015FC009B003B617B691A680F213B6901FA03F37D
:10160C00DB431A40396A3B6901FA03F31A437B69DD
:10161C001A603B685B6803F08053002B00F09080ED
:10162C00564B9B69554A43F001039361534B9B699D
:10163C0003F00103BB60BB68514A7B6A9B08023311
:10164C0052F82330FB607B6A03F003039B000F22EC
:10165C0002FA03F3DB43FA681340FB607B68494AE8
:10166C0093420DD07B68484A934207D07B68474A27
:10167C00934201D1022304E0032302E0012300E0A2
:10168C0000237A6A02F0030292009340FA68134333
:10169C00FB603B497B6A9B080233FA6841F82320C4
:1016AC003B685B6803F48033002B06D0384B1A6818
:1016BC003749BB6913430B6006E0354B1A68BB69AD
:1016CC00DB43334913400B603B685B6803F4003326
:1016DC00002B06D02E4B5A682D49BB6913434B6027
:1016EC0006E02B4B5A68BB69DB43294913404B601E
:1016FC003B685B6803F48013002B06D0244B9A687C
:10170C002349BB6913438B6006E0214B9A68BB6984
:10171C00DB431F4913408B603B685B6803F4001389
:10172C00002B06D01A4BDA681949BB691343CB60FE
:10173C0006E0174BDA68BB69DB4315491340CB60F5
:10174C007B6A01337B623B681A687B6A22FA03F37B
:10175C00002B7FF4AFAE00BF00BF2C37BD4680BC62
:10176C00704700BF00003210000031100000221042
:10177C000000211000001210000011100010024097
:10178C000000014000080140000C01400010014025
:10179C000004014080B485B000AF78600B467B80BC
:1017AC007B689A687B881340002B02D00123FB7363
:1017BC0001E00023FB73FB7B18461437BD4680BC4D
:1017CC00704780B483B000AF78600B467B801346C3
:1017DC007B707B78002B03D07A887B681A6103E0DE
:1017EC007B881A047B681A6100BF0C37BD4680BC2D
:1017FC00704780B485B000AF78600B467B807B6807
:10180C00DB68FB607A88FB6813401A04FB68D943D9
:10181C007B880B401A437B681A6100BF1437BD46A6
:10182C0080BC704780B586B000AF78607B68002BB9
:10183C0001D101236CE27B681B6803F00103002BD0
:10184C0000F08780924B5B6803F00C03042B0CD0E8
:10185C008F4B5B6803F00C03082B12D18C4B5B682D
:10186C0003F48033B3F5803F0BD1894B1B6803F431
:10187C000033002B6CD07B685B68002B68D1012394
:10188C0046E27B685B68B3F5803F06D1804B1B68F2
:10189C007F4A43F4803313602EE07B685B68002B37
:1018AC000CD17B4B1B687A4A23F480331360784B42
:1018BC001B68774A23F4802313601DE07B685B6808
:1018CC00B3F5A02F0CD1724B1B68714A43F48023E3
:1018DC0013606F4B1B686E4A43F4803313600BE04C
:1018EC006B4B1B686A4A23F480331360684B1B688C
:1018FC00674A23F4802313607B685B68002B13D04A
:10190C00FFF7B6FC386108E0FFF7B2FC02463B6912
:10191C00D31A642B01D90323FAE15D4B1B6803F442
:10192C000033002BF0D014E0FFF7A2FC386108E084
:10193C00FFF79EFC02463B69D31A642B01D90323A3
:10194C00E6E1534B1B6803F40033002BF0D100E0AD
:10195C0000BF7B681B6803F00203002B63D04C4B69
:10196C005B6803F00C03002B0BD0494B5B6803F056
:10197C000C03082B1CD1464B5B6803F48033002B03
:10198C0016D1434B1B6803F00203002B05D07B6878
:10199C001B69012B01D00123BAE13D4B1B6823F0DD
:1019AC00F8027B685B69DB00394913430B603AE052
:1019BC007B681B69002B20D0364B01221A60FFF785
:1019CC0057FC386108E0FFF753FC02463B69D31A19
:1019DC00022B01D903239BE12D4B1B6803F002035F
:1019EC00002BF0D02A4B1B6823F0F8027B685B6954
:1019FC00DB00274913430B6015E0264B00221A60CD
:101A0C00FFF736FC386108E0FFF732FC02463B6911
:101A1C00D31A022B01D903237AE11D4B1B6803F067
:101A2C000203002BF0D17B681B6803F00803002B2A
:101A3C003AD07B689B69002B19D0174B01221A6096
:101A4C00FFF716FC386108E0FFF712FC02463B6911
:101A5C00D31A022B01D903235AE10D4B5B6A03F015
:101A6C000203002BF0D0012000F0A6FA1CE00A4B78
:101A7C0000221A60FFF7FCFB38610FE0FFF7F8FB60
:101A8C0002463B69D31A022B08D9032340E100BF5D
:101A9C000010024000004242800442429E4B5B6AAE
:101AAC0003F00203002BE9D17B681B6803F00403ED
:101ABC00002B00F0A6800023FB75974BDB6903F02D
:101ACC008053002B0DD1944BDB69934A43F0805328
:101ADC00D361914BDB6903F08053BB60BB6801237E
:101AEC00FB758E4B1B6803F48073002B18D18B4B4A
:101AFC001B688A4A43F480731360FFF7B9FB3861A3
:101B0C0008E0FFF7B5FB02463B69D31A642B01D9F9
:101B1C000323FDE0814B1B6803F48073002BF0D092
:101B2C007B68DB68012B06D17B4B1B6A7A4A43F03E
:101B3C00010313622DE07B68DB68002B0CD1764B24
:101B4C001B6A754A23F001031362734B1B6A724ABA
:101B5C0023F0040313621CE07B68DB68052B0CD1BB
:101B6C006D4B1B6A6C4A43F0040313626A4B1B6A8D
:101B7C00694A43F0010313620BE0674B1B6A664A28
:101B8C0023F001031362644B1B6A634A23F00403C2
:101B9C0013627B68DB68002B15D0FFF769FB38619B
:101BAC000AE0FFF765FB02463B69D31A41F2883223
:101BBC00934201D90323ABE0574B1B6A03F002039A
:101BCC00002BEED014E0FFF753FB38610AE0FFF76F
:101BDC004FFB02463B69D31A41F28832934201D93A
:101BEC00032395E04C4B1B6A03F00203002BEED150
:101BFC00FB7D012B05D1484BDB69474A23F0805311
:101C0C00D3617B68DB69002B00F08180424B5B6801
:101C1C0003F00C03082B61D07B68DB69022B46D1E7
:101C2C003F4B00221A60FFF723FB386108E0FFF7F7
:101C3C001FFB02463B69D31A022B01D9032367E031
:101C4C00354B1B6803F00073002BF0D17B681B6ACB
:101C5C00B3F5803F08D1304B5B6823F400327B68CE
:101C6C009B682D4913434B602B4B5B6823F4741218
:101C7C007B68196A7B685B6A0B43274913434B608B
:101C8C00274B01221A60FFF7F3FA386108E0FFF7DF
:101C9C00EFFA02463B69D31A022B01D9032337E032
:101CAC001D4B1B6803F00073002BF0D02FE01C4B76
:101CBC0000221A60FFF7DCFA386108E0FFF7D8FA67
:101CCC0002463B69D31A022B01D9032320E0124BA5
:101CDC001B6803F00073002BF0D118E07B68DB6904
:101CEC00012B01D1012313E00B4B5B68FB60FB68FC
:101CFC0003F480327B681B6A9A4206D1FB6803F4BA
:101D0C0070127B685B6A9A4201D0012300E00023C9
:101D1C0018461837BD4680BD0010024000700040C8
:101D2C006000424280B584B000AF786039607B6857
:101D3C00002B01D10123D0E06A4B1B6803F0070391
:101D4C003A689A4210D9674B1B6823F00702654921
:101D5C003B6813430B60634B1B6803F007033A6843
:101D6C009A4201D00123B8E07B681B6803F00203A0
:101D7C00002B20D07B681B6803F00403002B05D0DC
:101D8C00594B5B68584A43F4E06353607B681B68AB
:101D9C0003F00803002B05D0534B5B68524A43F405
:101DAC0060535360504B5B6823F0F0027B689B6878
:101DBC004D4913434B607B681B6803F00103002BF8
:101DCC0040D07B685B68012B07D1474B1B6803F441
:101DDC000033002B15D101237FE07B685B68022B5D
:101DEC0007D1414B1B6803F00073002B09D1012371
:101DFC0073E03D4B1B6803F00203002B01D1012360
:101E0C006BE0394B5B6823F003027B685B683649F7
:101E1C0013434B60FFF72CFAF8600AE0FFF728FA3F
:101E2C000246FB68D31A41F28832934201D903234C
:101E3C0053E02D4B5B6803F00C027B685B689B00E6
:101E4C009A42EBD1274B1B6803F007033A689A427E
:101E5C0010D2244B1B6823F0070222493B68134322
:101E6C000B60204B1B6803F007033A689A4201D0C1
:101E7C00012332E07B681B6803F00403002B08D0BD
:101E8C00194B5B6823F4E0627B68DB6816491343EB
:101E9C004B607B681B6803F00803002B09D0124BC6
:101EAC005B6823F460527B681B69DB000E491343AB
:101EBC004B6000F021F802460B4B5B681B0903F0EA
:101ECC000F030A49CB5C22FA03F3094A1360094B4E
:101EDC001B681846FFF78AF9002318461037BD46D1
:101EEC0080BD00BF0020024000100240E029000825
:101EFC002C0000203000002090B48AB000AF2A4B98
:101F0C003C1D0FCB84E80F0040F201233B800023E3
:101F1C00FB610023BB6100237B6200237B610023F8
:101F2C003B62224B5B68FB61FB6903F00C03042BE7
:101F3C0002D0082B03D02DE01D4B3B622DE0FB693A
:101F4C009B0C03F00F0307F12802134413F8243CF5
:101F5C007B61FB6903F48033002B13D0134B5B685C
:101F6C005B0C03F0010307F12802134413F8283C1F
:101F7C00BB617B690E4A02FB03F2BB69B2FBF3F354
:101F8C007B6204E07B690B4A02FB03F37B627B6A96
:101F9C003B6202E0064B3B6200BF3B6A18462837A7
:101FAC00BD4690BC704700BFD0290008001002400D
:101FBC0000127A0000093D0080B485B000AF786053
:101FCC000A4B1B680A4AA2FB03235B0A7A6802FBD2
:101FDC0003F3FB6000BFFB685A1EFA60002BF9D1BB
:101FEC0000BF00BF1437BD4680BC70472C000020DA
:101FFC00D34D621080B582B000AF78607B68002B47
:10200C0001D1012341E07B6893F83D30DBB2002B1A
:10201C0006D17B68002283F83C207868FFF74EF8E5
:10202C007B68022283F83D207B681A687B68043346
:10203C001946104600F06AFA7B68012283F84620A4
:10204C007B68012283F83E207B68012283F83F20C5
:10205C007B68012283F840207B68012283F84120B1
:10206C007B68012283F842207B68012283F843209D
:10207C007B68012283F844207B68012283F8452089
:10208C007B68012283F83D20002318460837BD46A3
:10209C0080BD000080B485B000AF78607B6893F899
:1020AC003D30DBB2012B01D0012335E07B680222ED
:1020BC0083F83D207B681B68DA687B681B6842F0FC
:1020CC000102DA607B681B68164A934209D07B6870
:1020DC001B68B3F1804F04D07B681B68124A934293
:1020EC0011D17B681B689B6803F00703FB60FB68DE
:1020FC00062B10D07B681B681A687B681B6842F043
:10210C0001021A6007E07B681B681A687B681B6811
:10211C0042F001021A60002318461437BD4680BCF9
:10212C00704700BF002C01400004004080B582B015
:10213C0000AF78607B681B681B6903F00203022BFD
:10214C0022D17B681B68DB6803F00203022B1BD1D6
:10215C007B681B686FF002021A617B6801221A7798
:10216C007B681B689B6903F00303002B03D0786822
:10217C0000F0B1F905E0786800F0A4F9786800F097
:10218C00B3F97B6800221A777B681B681B6903F024
:10219C000403042B22D17B681B68DB6803F0040367
:1021AC00042B1BD17B681B686FF004021A617B68DF
:1021BC0002221A777B681B689B6903F44073002B1F
:1021CC0003D0786800F087F905E0786800F07AF9B8
:1021DC00786800F089F97B6800221A777B681B68A5
:1021EC001B6903F00803082B22D17B681B68DB6892
:1021FC0003F00803082B1BD17B681B686FF00802E7
:10220C001A617B6804221A777B681B68DB6903F010
:10221C000303002B03D0786800F05DF905E07868C3
:10222C0000F050F9786800F05FF97B6800221A77AB
:10223C007B681B681B6903F01003102B22D17B6891
:10224C001B68DB6803F01003102B1BD17B681B6829
:10225C006FF010021A617B6808221A777B681B6882
:10226C00DB6903F44073002B03D0786800F033F97A
:10227C0005E0786800F026F9786800F035F97B689D
:10228C0000221A777B681B681B6903F00103012B82
:10229C000ED17B681B68DB6803F00103012B07D1AF
:1022AC007B681B686FF001021A617868FEF7DEFC30
:1022BC007B681B681B6903F08003802B0ED17B6845
:1022CC001B68DB6803F08003802B07D17B681B68DD
:1022DC006FF080021A61786800F067FA7B681B68FF
:1022EC001B6903F04003402B0ED17B681B68DB6835
:1022FC0003F04003402B07D17B681B686FF0400252
:10230C001A61786800F0F9F87B681B681B6903F0A8
:10231C002003202B0ED17B681B68DB6803F02003A5
:10232C00202B07D17B681B686FF020021A6178683C
:10233C0000F032FA00BF0837BD4680BD80B584B0CE
:10234C0000AF786039607B6893F83C30012B01D189
:10235C000223B3E07B68012283F83C207B680222D5
:10236C0083F83D207B681B689B68FB60FB6823F04F
:10237C007703FB60FB6823F47F43FB607B681B687F
:10238C00FA689A603B681B68B3F5005F3ED0B3F502
:10239C00005F00F28780B3F5805F00F08580B3F5B5
:1023AC00805F7FD8702B1AD0702B7BD8602B50D0CD
:1023BC00602B77D8502B3CD0502B73D8402B58D057
:1023CC00402B6FD8302B64D0302B6BD8202B60D0A7
:1023DC00202B67D8002B5CD0102B5AD062E07B6886
:1023EC0018683B6899683B685A683B68DB6800F082
:1023FC005CF97B681B689B68FB60FB6843F07703A8
:10240C00FB607B681B68FA689A604EE07B68186812
:10241C003B6899683B685A683B68DB6800F045F993
:10242C007B681B689A687B681B6842F480429A60E0
:10243C003BE07B6818683B6859683B68DB681A4668
:10244C0000F0BCF87B681B685021184600F013F9AB
:10245C002BE07B6818683B6859683B68DB681A4658
:10246C0000F0DAF87B681B686021184600F003F96D
:10247C001BE07B6818683B6859683B68DB681A4648
:10248C0000F09CF87B681B684021184600F0F3F8BC
:10249C000BE07B681A683B681B681946104600F015
:1024AC00EAF802E000BF00E000BF7B68012283F87D
:1024BC003D207B68002283F83C200023184610370F
:1024CC00BD4680BD80B483B000AF786000BF0C37D0
:1024DC00BD4680BC704780B483B000AF786000BF4D
:1024EC000C37BD4680BC704780B483B000AF7860B9
:1024FC0000BF0C37BD4680BC704780B483B000AFC2
:10250C00786000BF0C37BD4680BC704780B485B086
:10251C0000AF786039607B681B68FB607B68254A7C
:10252C00934207D07B68B3F1804F03D07B68224A7B
:10253C00934208D1FB6823F07003FB603B685B6837
:10254C00FA681343FB607B681A4A934207D07B6896
:10255C00B3F1804F03D07B68174A934208D1FB68D4
:10256C0023F44073FB603B68DB68FA681343FB6041
:10257C00FB6823F080023B685B691343FB607B685C
:10258C00FA681A603B689A687B68DA623B681A687A
:10259C007B689A627B68074A934203D13B681A694D
:1025AC007B681A637B6801225A6100BF1437BD46F1
:1025BC0080BC7047002C01400004004080B487B000
:1025CC0000AFF860B9607A60FB681B6A7B61FB68DE
:1025DC001B6A23F00102FB681A62FB689B693B6172
:1025EC003B6923F0F0033B617B681B013A691343A1
:1025FC003B617B6923F00A037B617A69BB681343F7
:10260C007B61FB683A699A61FB687A691A6200BF60
:10261C001C37BD4680BC704780B487B000AFF860F3
:10262C00B9607A60FB681B6A23F01002FB681A62BF
:10263C00FB689B697B61FB681B6A3B617B6923F4CC
:10264C0070437B617B681B037A6913437B613B6935
:10265C0023F0A0033B61BB681B013A6913433B6148
:10266C00FB687A699A61FB683A691A6200BF1C3789
:10267C00BD4680BC704780B485B000AF78603960CF
:10268C007B689B68FB60FB6823F07003FB603A6817
:10269C00FB68134343F00703FB607B68FA689A609E
:1026AC0000BF1437BD4680BC704780B487B000AF04
:1026BC00F860B9607A603B60FB689B687B617B6902
:1026CC0023F47F437B613B681A027B681A43BB6827
:1026DC0013437A6913437B61FB687A699A6000BF84
:1026EC001C37BD4680BC704780B485B000AF7860A5
:1026FC0039607B6893F83C30012B01D1022341E017
:10270C007B68012283F83C207B68022283F83D2001
:10271C007B681B685B68FB607B681B689B68BB60A5
:10272C00FB6823F07003FB603B681B68FA6813437B
:10273C00FB607B681B68FA685A607B681B68144AEC
:10274C00934209D07B681B68B3F1804F04D07B683F
:10275C001B68104A93420CD1BB6823F08003BB600A
:10276C003B685B68BA681343BB607B681B68BA68DC
:10277C009A607B68012283F83D207B68002283F8F5
:10278C003C20002318461437BD4680BC704700BF60
:10279C00002C01400004004080B483B000AF78608E
:1027AC0000BF0C37BD4680BC704780B483B000AF0F
:1027BC00786000BF0C37BD4680BC704770B50026F2
:1027CC000C4D0D4C641BA410A64209D100F030F83E
:1027DC0000260A4D0A4C641BA410A64205D170BDFC
:1027EC0055F8043B98470136EEE755F8043B9847FB
:1027FC000136F2E7F0290008F0290008F02900085A
:10280C00F42900080A44914200F1FF3300D17047CB
:10281C0010B511F8014B914203F8014FF9D110BDDD
:10282C0003460244934200D1704703F8011BF9E7B9
:10283C00F8B500BFF8BC08BC9E467047F8B500BFA1
:08284C00F8BC08BC9E46704771
:102854000000000001000000010000000100000071
:102864000100000000000000010000000100000061
:102874000100000001000000000000000100000051
:102884000100000001000000010000000000000041
:102894000000000000000000000000000000000034
:1028A4000000000000000000010000000100000022
:1028B4000000000000000000010000000100000012
:1028C4000100000001000000000000000000000002
:1028D40001000000000000000000000001000000F2
:1028E40000000000000000000000000000000000E4
:1028F40000000000010000000100000000000000D2
:1029040001000000000000000000000001000000C1
:1029140001000000000000000000000000000000B2
:1029240001000000000000000000000001000000A1
:102934000000000000000000000000000100000092
:102944000000000000000000000000000000000083
:102954000000000000000000000000000000000073
:10296400010000000100000001000000010000005F
:102974000000000000000000000000000000000053
:102984000000000000000000000000000000000043
:102994000000000000000000000000000100000032
:1029A4000000000000000000000000000100000022
:1029B4000100000001000000000000000100000010
:1029C40001000000010000000000000002030405F3
:1029D400060708090A0B0C0D0E0F1010000000006A
:0C29E400000000000102030406070809BF
:0429F00031010008A9
:0429F4000D010008C9
:1029F80001000000010000000100000001000000CB
:102A0800F4010000010000000100000001000000C6
:102A18000500000002000000030000000024F4008C
:082A2800100000000100000095
:04000005080011815D
:00000001FF
